:020000040800F2
:10000000B81F002089010008910100089301000831
:100010009501000897010008990100080000000000
:100020000000000000000000000000009B0100082C
:100030009D010008000000009F010008A1010008C8
:10004000A3010008A3010008A3010008A301000800
:10005000A3010008A3010008850200082D03000881
:10006000A3010008A3010008A3010008A3010008E0
:10007000A3010008A3010008A3010008A3010008D0
:10008000A3010008A3010008A3010008A3010008C0
:10009000A3010008A3010008A3010008A3010008B0
:1000A000A3010008A3010008A3010008A3010008A0
:1000B000691F00083D200008DD200008A30100089A
:1000C000A3010008A3010008A3010008A301000880
:1000D000A301000849230008A3010008A3010008A8
:1000E000A3010008A3010008A301000800F002F822
:1000F00000F03AF80AA090E8000C82448344AAF188
:100100000107DA4501D100F02FF8AFF2090EBAE885
:100110000F0013F0010F18BFFB1A43F0010318473B
:10012000F876000018770000103A24BF78C878C12C
:10013000FAD8520724BF30C830C144BF04680C60ED
:10014000704700000023002400250026103A28BF35
:1001500078C1FBD8520728BF30C148BF0B60704739
:100160001FB51FBD10B510BD00F05AF81146FFF7BE
:10017000F7FF02F061FB00F078F803B4FFF7F2FF3D
:1001800003BC02F0F2F90000094880470948004723
:10019000FEE7FEE7FEE7FEE7FEE7FEE7FEE7FEE737
:1001A000FEE7FEE704480549054A064B7047000094
:1001B000091F0008ED000008B8150020B81F002036
:1001C000B8170020B817002070474FF0000200B5A4
:1001D000134694469646203922BFA0E80C50A0E86A
:1001E0000C50B1F12001BFF4F7AF090728BFA0E818
:1001F0000C5048BF0CC05DF804EB890028BF40F8E4
:10020000042B08BF704748BF20F8022B11F0804F25
:1002100018BF00F8012B7047704770477047704750
:10022000754600F02BF8AE4605006946534620F0AF
:100230000700854618B020B5FFF7B4FFBDE82040A1
:100240004FF000064FF000074FF000084FF0000B92
:1002500021F00701AC46ACE8C009ACE8C009ACE845
:10026000C009ACE8C0098D46704710B50446AFF32D
:1002700000802046BDE81040FFF77FBF0048704770
:100280005415002010B5012000F0AAF8002840D035
:1002900022480078A0B90121214800F003FC78B180
:1002A00000214FF0804001F076FF01201B490870CB
:1002B00000201C4908600121880701F06CFF28E03C
:1002C0001648007828B30121154800F0EBFB00BB6D
:1002D00000201249087000214FF0804001F05BFFC0
:1002E000104800680A280AD30E480068642806D21D
:1002F00001200D49087000200A49086009E00948FA
:100300000068642805D3012007494870002005498A
:100310000860012000F05EF810BD000034000020ED
:10032000000C01402C0000203000002010B50220FD
:1003300000F056F8002840D00221224800F0B2FB1D
:1003400090B12148007878B900214FF0804001F049
:1003500022FF01201C49087000201C49086001216F
:10036000880701F018FF28E01748007828B3022119
:10037000144800F097FB00BB0020134908700021CF
:100380004FF0804001F007FF104800680A280AD3A8
:100390000E480068642806D201200D49087000202C
:1003A0000A49086009E009480068642805D301206B
:1003B00007494870002005490860022000F00AF84B
:1003C00010BD0000000C0140350000202C00002072
:1003D0003200002001490860704700001404014009
:1003E000014600200022074B1B6803EA0102054B6F
:1003F00014331B680B4013B10AB1012000E0002048
:100400007047000000040140002123498279002A3E
:100410003AD00A46126803689A430B461A600A1DCE
:10042000126803689A430B1D1A60027911440A6826
:1004300003681A430A60184A0832126803689A432C
:10044000154B08331A601A1D126803689A43124B41
:100450000C331A604279102A0ED11A1F12680368F1
:100460001A430D4B08331A601A1D126803681A43A9
:10047000094B0C331A600DE00749427911440A68B0
:1004800003681A430A6005E0027911440A680368A8
:100490009A430A6070470000000401402DE9FE43C2
:1004A00004460D4617460026CAE006EB8600F349CF
:1004B00011F8200004EB840115F8211088427CD14A
:1004C00006EB8600ED4901EB8000407804EB8401E7
:1004D00005EB810149788842F1D106EB8600E749B6
:1004E00001EB8000807804EB840105EB81018978C1
:1004F0008842E4D106EB8600E04901EB8000C17838
:1005000004EB840005EB8000C078814255D106EBF6
:100510008600DA4901EB8000017904EB840005EBE9
:1005200080000079814248D106EB8600D34901EB77
:100530008000417904EB840005EB80004079814222
:100540007CD106EB8600CD4901EB8000817904EB7C
:10055000840005EB8000807981426FD106EB860034
:10056000C64901EB8000C17904EB840005EB8000F3
:10057000C079814262D106EB8600C04901EB800060
:10058000017A04EB840005EB8000007A814255D1AA
:1005900006EB8600B94901EB8000007C01284DD1B3
:1005A0003946B748007802F083F84FF6FF708C2385
:1005B00080223C210090002000E03FE000F031FB71
:1005C000002010214FF6FF724FF47843CDE900214F
:1005D0000290ACA23C2100F00BFD002010214FF650
:1005E000FF72CDE90021029004EB840005EB80024C
:1005F0004FF478435021002000F0FAFC0020102135
:100600004FF6FF72CDE90021029004EB840005EB68
:100610008000821C4FF478435021202001F04BF8D9
:100620004FF47A7001F0C0FF4FF6FF708C238022E8
:100630003C210090002000F0F4FA1CE1701CC6B2CE
:10064000A02EFFF632AF002610E106EB86008B49A4
:1006500001EB8000007C00287DD104EB840015F8BC
:10066000200006EB8601854A02F8210004EB840095
:1006700005EB8000407806EB860102EB81014870B3
:1006800004EB840005EB8000807806EB860102EB2A
:100690008101887004EB840005EB8000C17806EBD3
:1006A000860002EB8000C17004EB840005EB800043
:1006B000017906EB860002EB8000017104EB8400F7
:1006C00005EB8000417906EB860002EB800041716A
:1006D00004EB840005EB8000817906EB860002EBD9
:1006E0008000817104EB840005EB8000C17906EB8A
:1006F000860002EB8000C17104EB840005EB8000F2
:10070000017A06EB860002EB80000172012006EB05
:10071000860102EB810108745E480078401C5D4947
:1007200008705D4800780978401AC7B239465448C5
:10073000007801F0BDFF594806704FF6FF708C231A
:1007400080223C210090002000F06BFA0020102154
:100750004FF6FF7200E041E04FF47843CDE900210D
:1007600002904FA23C2100F043FC002010214FF6E4
:10077000FF72CDE9002102904848007800EB80002C
:100780003E4901EB80024FF478435021002000F0F5
:100790002FFC002010214FF6FF72CDE900210290BE
:1007A0003E48007800EB8000344901EB8000821C59
:1007B0004FF478435021202000F07DFF02F01CFC14
:1007C00041F2883001F0F0FE4FF6FF708C2380225A
:1007D0003C210090002000F024FA4AE0A02E43D1F2
:1007E00006EB8600254901EB8000007CE0B34FF664
:1007F000FF70642380223C210090002000F011FA59
:10080000002010214FF6FF724FF47843CDE900210C
:10081000029026A23C2100F0EBFB00BF00224FF427
:100820008071254800F04BF900BF4FF0000818E038
:1008300000BF00224FF400711F4800F040F900BFD4
:10084000FA2001F0B1FE00BF012251021A4800F067
:1008500036F900BFFA2001F0A7FE08F1010000F010
:10086000FF08B8F10A0FE3DB701CC6B2A02EFFF63A
:10087000ECAE00BF00BF0024BDE8FE833C000020BA
:1008800017000020B3B5C1BED2D1D4DAB3B5BFE2F0
:1008900000000000150000201400002016000020B9
:1008A000BBB6D3ADB9E2C1D900000000B3B5CEBB31
:1008B000D2D1C2FA000000000008014030B5002289
:1008C0008B071C0F0F2303FA04F20B4B8C1053F809
:1008D00024309343084C8D1044F8253023468C1067
:1008E00053F824308C07240F00FA04F42343024CFD
:1008F0008D1044F8253030BD080001402DE9F0414D
:10090000024600250026002000230024002791F83D
:1009100003C00CF00F0591F803C00CF0100CBCF1F3
:10092000000F03D091F802C04CEA050591F800C011
:10093000BCF1000F31D0146800202BE04FF0010C07
:100940000CFA00F3B1F800C00CEA03069E4220D175
:1009500083004FF00F0C0CFA03F7BC4305FA03FCBD
:100960004CEA040491F803C0BCF1280F06D14FF003
:10097000010C0CFA00FCC2F814C00AE091F803C0A4
:10098000BCF1480F05D14FF0010C0CFA00FCC2F885
:1009900010C0401C0828D1D31460B1F800C0BCF1CD
:1009A000FF0F34DD546800202EE000F1080C4FF0FA
:1009B000010808FA0CF3B1F800C00CEA03069E42E5
:1009C00021D183004FF00F0C0CFA03F7BC4305FA5A
:1009D00003FC4CEA040491F803C0BCF1280F05D1D4
:1009E00000F1080C08FA0CF8C2F8148091F803C062
:1009F000BCF1480F07D100F1080C4FF0010808FACC
:100A00000CF8C2F81080401C0828CED35460BDE812
:100A1000F0810000F0B50A460023002400210025E3
:100A200000F00046B6F1004F02D11D4EF16901E021
:100A30001B4E7168C0F3034583B200F44016B6F54F
:100A4000401F08D121F07061154E766826F070665F
:100A5000134F7E6012E000F48016B6F5801F06D1B9
:100A6000032606FA05F4A14341F0706106E0460D45
:100A7000360103FA06F6B14341F0706122B1460D2A
:100A8000360103FA06F6314300F00046B6F1004F96
:100A900002D1034EF16101E0014E7160F0BD000032
:100AA000000001400246002093680B400BB101207A
:100AB00000E00020704741617047016170470AB152
:100AC000016100E04161704710B502F005FA0128AC
:100AD00006D0022817D0032828D0042862D13EE08F
:100AE0003148007818B901203049087006E02E48D6
:100AF0000078012802D100202C4908702B4800788A
:100B0000294908704EE02A48007818B9012029497F
:100B1000087006E026480078012802D10020254907
:100B2000087024480078224908703BE01F4800788C
:100B300028B921480078401C1F4908700EE01B4866
:100B4000007801280AD11C480078401E1A49087014
:100B500008460078002801DC0020087022E01548D3
:100B6000007858B915480078401C144908700846A8
:100B70000078A02815DBA020087012E00D4800784E
:100B800001280ED10D480078401E0C490870084617
:100B900000780B490978884203DC09480078074946
:100BA000087000BF00BF10BD1C0000201B0000200B
:100BB0001A00002019000020170000201400002057
:100BC000150000202DE9F04104460D4616461F464B
:100BD0002A2000F0A1FDA11C88B200F08DFDB11CFF
:100BE00088B200F089FD2B2000F096FD691C88B2C8
:100BF00000F082FD791C88B200F07EFD2C2000F010
:100C00008BFDBDE8F08170B504460D4616462B46B7
:100C1000224629462046FFF7D5FF304600F06CFDFE
:100C200070BD2DE9F04706460F4614461D46DDF817
:100C300020A0681E83B2601E82B239463046FFF79C
:100C4000C1FFB8460EE0B14606E0504600F054FD44
:100C500009F101001FFA80F9A145F6DB08F1010056
:100C60001FFA80F8A845EEDBBDE8F08708B5012142
:100C7000042001F05BF83F20ADF8000010208DF853
:100C8000030003208DF8020069460448FFF736FE92
:100C90003F210248FFF711FF08BD00000008014096
:100CA00010B5FFF7E3FF04217A48FFF704FF642043
:100CB00001F07AFC04217748FFF7FFFE642001F081
:100CC00073FC20217348FFF7F8FE642001F06CFCF0
:100CD000112000F021FD782001F066FCB12000F029
:100CE0001BFD052000F011FD3C2000F00EFD3C2016
:100CF00000F00BFDB22000F00FFD052000F005FD17
:100D00003C2000F002FD3C2000F0FFFCB32000F08E
:100D100003FD052000F0F9FC3C2000F0F6FC3C202F
:100D200000F0F3FC052000F0F0FC3C2000F0EDFCAE
:100D30003C2000F0EAFCB42000F0EEFC032000F0C0
:100D4000E4FCC02000F0E8FC282000F0DEFC0820D5
:100D500000F0DBFC042000F0D8FCC12000F0DCFC3B
:100D6000C02000F0D2FCC22000F0D6FC0D2000F024
:100D7000CCFC002000F0C9FCC32000F0CDFC8D208D
:100D800000F0C3FC2A2000F0C0FCC42000F0C4FC2A
:100D90008D2000F0BAFCEE2000F0B7FCC52000F07A
:100DA000BBFC1A2000F0B1FC362000F0B5FCC020DE
:100DB00000F0ABFCE02000F0AFFC042000F0A5FC4C
:100DC000222000F0A2FC072000F09FFC0A2000F087
:100DD0009CFC2E2000F099FC302000F096FC252091
:100DE00000F093FC2A2000F090FC282000F08DFCFD
:100DF000262000F08AFC2E2000F087FC3A2000F02C
:100E000084FC002000F081FC012000F07EFC032027
:100E100000F07BFC132000F078FCE12000F07CFC6B
:100E2000042000F072FC162000F06FFC062000F099
:100E30006CFC0D2000F069FC2D2000F066FC2620E3
:100E400000F063FC232000F060FC272000F05DFC34
:100E5000272000F05AFC252000F057FC2D2000F040
:100E600054FC3B2000F051FC002000F04EFC01201F
:100E700000F04BFC042000F048FC132000F045FC7F
:100E80003A2000F049FC052000F03FFC292000F04A
:100E900043FC10BD000801402DE9FF5F80468A46F3
:100EA00017469B460F9D00200290CDF800802846F3
:100EB00005EBD071C1F347042046E21704EB5272F0
:100EC000D2102146E31704EB5373DB10A4EBC303EA
:100ED0000BB1012300E000231A446A4392B201924D
:100EE000A7F12000C7B20AEB0500401E83B208EB51
:100EF0000400401E82B251464046FFF763FE0026C2
:100F000069E00C2D07D107EB4700354901EB800064
:100F1000805D03901BE0102D05D1324800EB0710D7
:100F2000805D039013E0182D07D107EB47002E4991
:100F300001EB0010805D039009E0202D05D12B48C6
:100F400000EB8710805D039001E0BDE8FF9F4FF04C
:100F500000093AE01098C8B9012000FA09F0039995
:100F6000084018B1584600F0C7FB02E00E9800F0A8
:100F7000C3FB0298401CC0B20290029890FBF4F1AF
:100F800004FB1100E8B90020029021E0012000FAE2
:100F900009F00399084020B15A4651464046FFF7F0
:100FA00032FE08F101001FFA80F80098A8EB00005B
:100FB000A04206D1DDF800800AF101001FFA80FA94
:100FC00006E009F1010000F0FF09B9F1080FC1DBEB
:100FD00000BF701C86B20198864292DB00BFB4E766
:100FE000C434000838390008283F0008F8500008C9
:100FF0002DE9FE4F8046894617469A46DDE90D46A3
:101000000C9D36E00C2C09D153463A4649464046E1
:10101000CDE90146009500F031F825E0102C09D10A
:1010200053463A4649464046CDE90146009500F010
:10103000C9F819E0182C09D153463A4649464046AA
:10104000CDE90146009500F059F90DE0202C09D1B9
:1010500053463A4649464046CDE90146009500F0E0
:10106000F1F901E0BDE8FE8FBF1C08EB04001FFA98
:1010700080F838780028C5D100BFF3E72DE9FF5F7D
:101080000646894692469B460F9C00200390009698
:101090002046E21704EB5272D2102146E31704EB0C
:1010A0005373DB10A4EBC3030BB1012300E0002357
:1010B0001A44624392B2019205200290002579E021
:1010C00005EB850000EBC5003D4911F810009AF8CA
:1010D000001088426BD105EB850000EBC500384954
:1010E00001EB400040789AF8011088425FD109EB8B
:1010F0000400401E83B23019401E82B24946304679
:10110000FFF760FD00274FE04FF0000846E0109821
:1011100008BB05EB850000EBC500294901EB400049
:10112000801CC05D012101FA08F1084018B1584641
:1011300000F0E2FA02E00E9800F0DEFA0398401C9C
:10114000C0B20390039890FBF4F104FB110008BBBC
:101150000020039025E005EB850000EBC500184951
:1011600001EB4000801CC05D012101FA08F108403C
:1011700020B15A4649463046FFF745FD701C86B2FD
:101180000098301AA04205D1009E09F101001FFA13
:1011900080F906E008F1010000F0FF08B8F1080F3F
:1011A000B5DB00BF781CC7B201988742ACDB00BF3B
:1011B000681C85B20298854282DBBDE8FF9F000073
:1011C000B86800082DE9FF5F0646894692469B46AF
:1011D0000F9C0020039000962046E21704EB527209
:1011E000D2102146E31704EB5373DB10A4EBC303C7
:1011F0000BB1012300E000231A44624392B2019232
:1012000047200290002571E005EB05103A4911F8DE
:1012100010009AF80010884265D105EB0510364998
:1012200001EB400040789AF8011088425BD109EB4D
:101230000400401E83B23019401E82B24946304637
:10124000FFF7C0FC00274BE04FF0000842E0109889
:10125000F8B905EB0510284901EB4000801CC05D82
:10126000012101FA08F1084018B1584600F044FA8B
:1012700002E00E9800F040FA0398401CC0B20390C0
:10128000039890FBF4F104FB1100F8B900200390DF
:1012900023E005EB0510184901EB4000801CC05D00
:1012A000012101FA08F1084020B15A46494630466A
:1012B000FFF7A9FC701C86B20098301AA04205D135
:1012C000009E09F101001FFA80F906E008F1010013
:1012D00000F0FF08B8F1080FB9DB00BF781CC7B2F7
:1012E00001988742B0DB00BF681C85B20298854236
:1012F0008ADBBDE8FF9F00003A6900082DE9FF5F27
:101300000646894692469B460F9C00200390009615
:101310002046E21704EB5272D2102146E31704EB89
:101320005373DB10A4EBC3030BB1012300E00023D4
:101330001A44624392B2019205200290002579E09E
:1013400005EB850000EB45103D4911F810009AF8B7
:10135000001088426BD105EB850000EB4510384941
:1013600001EB400040789AF8011088425FD109EB08
:101370000400401E83B23019401E82B249463046F6
:10138000FFF720FC00274FE04FF0000846E01098E0
:1013900008BB05EB850000EB4510294901EB400037
:1013A000801CC05D012101FA08F1084018B15846BF
:1013B00000F0A2F902E00E9800F09EF90398401C9C
:1013C000C0B20390039890FBF4F104FB110008BB3A
:1013D0000020039025E005EB850000EB451018493F
:1013E00001EB4000801CC05D012101FA08F10840BA
:1013F00020B15A4649463046FFF705FC701C86B2BC
:101400000098301AA04205D1009E09F101001FFA90
:1014100080F906E008F1010000F0FF08B8F1080FBC
:10142000B5DB00BF781CC7B201988742ACDB00BFB8
:10143000681C85B20298854282DBBDE8FF9F0000F0
:10144000A87200082DE9FF5F0646894692469B4632
:101450000F9C0020039000962046E21704EB527286
:10146000D2102146E31704EB5373DB10A4EBC30344
:101470000BB1012300E000231A44624392B20192AF
:1014800005200290002571E005EB85103A4911F81E
:1014900010009AF80010884265D105EB8510364996
:1014A00001EB400040789AF8011088425BD109EBCB
:1014B0000400401E83B23019401E82B249463046B5
:1014C000FFF780FB00274BE04FF0000842E0109848
:1014D000F8B905EB8510284901EB4000801CC05D80
:1014E000012101FA08F1084018B1584600F004F94A
:1014F00002E00E9800F000F90398401CC0B203907F
:10150000039890FBF4F104FB1100F8B9002003905C
:1015100023E005EB8510184901EB4000801CC05DFD
:10152000012101FA08F1084020B15A4649463046E7
:10153000FFF769FB701C86B20098301AA04205D1F3
:10154000009E09F101001FFA80F906E008F1010090
:1015500000F0FF08B8F1080FB9DB00BF781CC7B274
:1015600001988742B0DB00BF681C85B202988542B3
:101570008ADBBDE8FF9F00001A7400082DE9FF4FC9
:1015800085B0074690461C46DDE91396304606EBCB
:10159000D071C1F3470B2149404601F0C7FE0390CB
:1015A00001F08CFE80B20490002531E0601B401EEB
:1015B000C1B20A2001F012FC0499B1FBF0F00A213B
:1015C000B0FBF1F201FB120AA01EA84210D10020CC
:1015D000A11E01FB0B71CDE90096029088B22E226C
:1015E000129B0699FFF758FC681CC5B2601CC4B278
:1015F00000200AF13001CAB205FB0B71CDE900965B
:10160000029088B2129B0699FFF746FC681CC5B28F
:10161000A542CBDB09B0BDE8F08F00000000C84256
:101620002DE9FF4F85B0074691461D46DDE913A61B
:1016300000200490304606EBD071C1F3470B002424
:1016400034E0281B401EC1B20A2001F0C7FBB9FBE1
:10165000F0F00A21B0FBF1F201FB12080498A0B9E6
:10166000681EA04211DDB8F1000F0CD1002004FB70
:101670000B71CDE900A6029088B22022129B069938
:10168000FFF70AFC10E001200490002008F130016F
:10169000CAB204FB0B71CDE900A6029088B2129B7E
:1016A0000699FFF7F9FB00BF601CC4B2AC42C8DB6F
:1016B00009B0BDE8F08F2DE9FE4F06460F461446EF
:1016C0009846DDE90D5ADDF8309010E0CDE9015A79
:1016D000CDF800902278434639463046FFF7DCFBD0
:1016E000284605EBD07106EB61018EB2641C2078B0
:1016F0000028EBD1BDE8FE8F10B50446201200F0A3
:101700001BF8E0B200F018F810BD10B504462046F2
:1017100000F012F810BD000010B50446082105487D
:10172000FFF7C9F9204600F007F808210148FFF744
:10173000C4F910BD0008014070B5044610211248DC
:10174000FFF7B9F9002517E001210F48FFF7B3F9BA
:1017500004F0800020B102210B48FFF7AEF903E04E
:1017600002210948FFF7A7F901210748FFF7A5F96A
:101770006006040E681CC5B2082DE5DB1021024886
:10178000FFF79BF970BD00000008014008B500BFDD
:101790000121042000F0CAFA00BF4FF48070ADF8B8
:1017A000000010208DF8030003208DF80200694628
:1017B0000548FFF7A3F800BF00224FF480710248EC
:1017C000FFF77DF900BF08BD0008014008B500BF64
:1017D0000121042000F0AAFA00BF4FF40070ADF818
:1017E000000010208DF8030003208DF802006946E8
:1017F0000548FFF783F800BF00224FF4007102484C
:10180000FFF75DF900BF08BD0008014070B5002179
:1018100000230F22C47804B3154C246804F4E06458
:10182000C4F5E064210AC1F10403CA40447804FA13
:1018300003F184781440214309010E4C0678A15528
:10184000047804F01F050124AC4005786D11AD004B
:1018500005F1E025C5F8004109E0047804F01F0512
:101860000124AC40044D0678761145F8264070BD41
:101870000CED00E000E400E080E100E02DE9FE4333
:1018800005460E4690461F46002436E204EB8400CF
:10189000FE4901EB8000007C01287DD1A02C7BDA81
:1018A00004EB840011F8200006EB860115F82110E6
:1018B000884272D104EB8400F44901EB8000407847
:1018C00006EB860105EB810149788842F1D104EBF2
:1018D0008400EE4901EB8000807806EB860105EB81
:1018E000810189788842E4D104EB8400E74901EB67
:1018F0008000C17806EB860005EB8000C07881424D
:10190000D7D104EB8400E14901EB8000017906EBBB
:10191000860005EB800000798142CAD104EB840087
:10192000DA4901EB8000417906EB860005EB800087
:1019300040798142BDD104EB8400D44901EB8000A1
:10194000817906EB860005EB800080798142B0D179
:1019500004EB8400CD4901EB8000C17906EB8600E1
:1019600005EB8000C0798142A3D104EB8400C74914
:1019700001EB8000017A06EB860005EB8000007A1F
:10198000814296D104EB8400C04901EB800040897C
:10199000BF490880BF4901E023E1C4E00978BC4A9F
:1019A000128801FB02F001F0A9FC8146BA4901F05E
:1019B000C3FB8046002004EB8401B44A02EB8101A2
:1019C000087404EB840102EB81014881B34800787C
:1019D000401EB2490870B24800780978401AC7B270
:1019E0003946AC48007800F063FE4FF6FF708C2358
:1019F00080223C2100900020FFF713F900201021E5
:101A00004FF6FF724FF47843CDE900210290A5A272
:101A10003C21FFF7EDFA002010214FF6FF72CDE9CF
:101A20000021029004EB8400984901EB80024FF4FE
:101A3000784350210020FFF7DBFA002010214FF6F9
:101A4000FF72CDE90021029004EB84008F4901EB85
:101A50008000821C4FF4784350212020FFF72BFE9A
:101A6000002010214FF6FF724FF47843CDE900219A
:101A700002908FA26421FFF7BBFA10204FF6FF718E
:101A80004FF478420523CDE9002102908048028876
:101A900064212020FFF7C4FD002010214FF6FF72C3
:101AA0004FF47843CDE90021029083A264214820BD
:101AB000FFF79EFA002010214FF6FF724FF4784393
:101AC000CDE9002102907DA27821FFF791FA102044
:101AD0004FF6FF714FF478420623CDE900210290C2
:101AE000424678212020FFF749FD002010214FF6C3
:101AF000FF724FF47843CDE90021029071A2782162
:101B00005820FFF775FA01F077FA41F2883000F0BB
:101B10004BFD4FF6FF70642380223C210090002093
:101B2000FFF77FF8ECE0A02C58D1394659480078EF
:101B300000F0BEFD4FF6FF708C2380223C21009008
:101B40000020FFF76EF8002010214FF6FF724FF4CF
:101B50007843CDE9002102905BA23C21FFF748FACF
:101B6000002010214FF6FF72CDE90021029006EB14
:101B7000860005EB80024FF4784350210020FFF7E8
:101B800037FA002010214FF6FF72CDE900210290B4
:101B900006EB860005EB8000821C4FF47843502151
:101BA0002020FFF788FD002010214FF6FF724FF430
:101BB0007843CDE90021029045A26421FFF718FA8D
:101BC00041F2883000F0F0FC4FF6FF708C23802249
:101BD0003C2100900020FFF724F891E0601CC4B283
:101BE0008BE0A02C7AD139462A48007800F060FDBD
:101BF0004FF6FF708C2380223C2100900020FFF7DD
:101C000010F8002010214FF6FF724FF47843CDE911
:101C1000002102902CA23C21FFF7EAF900201021BC
:101C20004FF6FF72CDE90021029006EB860005EB2E
:101C300080024FF4784350210020FFF7D9F90020AB
:101C400010214FF6FF72CDE90021029006EB8600CD
:101C500005EB8000821C4FF4784350212020FFF7D1
:101C60002AFD002010214FF6FF724FF47843CDE992
:101C70000021029016A26421FFF7BAF941F28830E0
:101C800000F092FC4FF6FF708C2328E03C0000200F
:101C900038000020170000200000704215000020CE
:101CA00014000020D0BBD0BBBBDDB9CB00000000CE
:101CB000CAB1B3A400000000B7D60000BCDBB8F185
:101CC00000000000D4AA0000CAB6B1F0CEAA0000FD
:101CD000B3B5C1BEB2BBD4DAC4DA000006E08022DC
:101CE0003C2100900020FEF79CFF09E039460648A1
:101CF000007800F0DDFC601CC4B2A02C7FF7C6ADFC
:101D000000BF0026BDE8FE831700002029B1064A67
:101D1000D2690243044BDA6104E0034AD269824388
:101D2000014BDA61704700000010024029B1064AF9
:101D300092690243044B9A6104E0034A9269824328
:101D4000014B9A61704700000010024030B500213D
:101D50000022002400232D4D6D6805F00C0121B1F7
:101D6000042905D0082923D105E0294D056022E08A
:101D7000274D05601FE0254D6D6805F47012234D59
:101D80006D6805F48034022505EB92421CB9214DA3
:101D9000554305600BE01D4D6D6805F400351DB120
:101DA0001C4D5543056002E0194D5543056002E0A6
:101DB000174D056000BF00BF144D6D6805F0F001C0
:101DC0000909154D6B5C0568DD4045600F4D6D6878
:101DD00005F4E061090A104D6B5C4568DD408560E3
:101DE0000A4D6D6805F46051C90A0B4D6B5C45687E
:101DF000DD40C560054D6D6805F44041890B074D18
:101E00006B5CC568B5FBF3F5056130BD00100240A1
:101E100000127A0000093D000000002010000020A0
:101E200010B500F001F810BD0CB500200190009035
:101E30003348006840F480303149086000BF3048C2
:101E4000006800F4003000900198401C0190009858
:101E500018B90198B0F5A06FF1D12948006800F4D5
:101E6000003010B10120009001E0002000900098A7
:101E7000012843D12348006840F010002149086040
:101E80000846006820F0070008600846006840F037
:101E9000020008601A4840681949486008464068CE
:101EA00048600846406840F48060486008464068E2
:101EB00020F47C1048600846406840F4E810486010
:101EC0000846006840F08070086000BF0C48006859
:101ED00000F000700028F9D00948406820F00300A5
:101EE000074948600846406840F00200486000BF6B
:101EF0000348406800F00C000828F9D10CBD000030
:101F0000001002400020024010B51348006840F065
:101F100001001149086008464068104908400E4910
:101F20004860084600680E4908400B4908600846AA
:101F3000006820F4802008600846406820F4FE0015
:101F400048604FF41F008860FFF76AFF4FF00060A1
:101F50000449086010BD0000001002400000FFF8B6
:101F6000FFFFF6FE08ED00E010B50121880700F044
:101F70001EF900B312480068401C11490860084669
:101F80000068642809D301210E48FEF78BFD20B1BB
:101F900000214FF0804000F0FEF8094800686428F6
:101FA00009D302210748FEF77DFD20B100214FF043
:101FB000804000F0F0F80121880700F0E9F810BD3A
:101FC0002C000020000C01401FB501210846FFF73E
:101FD0009DFE4720ADF804000020ADF8060042F257
:101FE0000F70ADF808000020ADF80A008DF80C0065
:101FF00001A94FF0804000F055F94FF0804000F00B
:10200000E8F801221146900700F0DAF8012188076C
:1020100000F0BEF81C208DF8000002208DF80100B1
:1020200001208DF802008DF803006846FFF7EEFBF3
:1020300000214FF0804000F0AEF81FBD10B5012127
:10204000044800F0B4F818B10121024800F0A0F8EB
:1020500010BD00000004004030B589B005460C46B4
:1020600001210220FFF752FE01210420FFF75EFE4E
:102070008020ADF8200018208DF8230003208DF873
:10208000220008A91348FEF739FCADF81850ADF846
:1020900014400020ADF81A00ADF8160005A90E484E
:1020A00000F000F96020ADF804000120ADF8060052
:1020B0000020ADF80C0001A9074800F091F80821B4
:1020C000054800F0DFF80121034800F064F809B08A
:1020D00030BD0000000801400004004010B501219F
:1020E0000B4800F064F870B10A480078401C0949B8
:1020F0000870084600783C2805DB01200649087076
:102100000020044908700121014800F041F810BD89
:102110000008004036000020370000201FB50121D4
:102120000420FFF7F3FD41F61F40ADF80400002046
:10213000ADF8060042F20F70ADF808000020ADF8CF
:102140000A008DF80C0001A9104800F0ABF80F4808
:1021500000F03FF8012211460C4800F031F801214F
:102160000A4800F015F81E208DF8000000208DF8B8
:1021700001008DF8020001208DF803006846FFF78A
:1021800045FB0121014800F006F81FBD0008004092
:10219000CA430282704721B1028842F001020280E4
:1021A00004E002884FF6FE731A4002807047024630
:1021B0000020138A0B400BB1012000E00020704783
:1021C0001AB183890B43838102E083898B43838126
:1021D000704701894FF6F872114001817047000085
:1021E00070B5002400220023058C4FF6EF763540B1
:1021F0000584028C8388048B48F6FF752C404FF6CB
:10220000FF452C400D884FF6FF7606EA05252C4346
:102210004FF6DF752A400D8906EA05152A434D88D9
:1022200006EA05152A43154DA84202D0144DA842CE
:102230001DD14FF67F752A404D894FF6FF7606EA8D
:1022400005152A434FF6BF752A408D8806EA051505
:102250002A434FF6FF352B404FF2FF752B408D89F7
:1022600006EA85052B43CD8906EA85052B43838045
:102270000483CD880587028470BD0000002C0140D6
:10228000003401400A460021018B4FF2FF731940D0
:102290004FF6FF7303EA0223194301837047018756
:1022A00070470000002202881D4B98420ED01D4B43
:1022B00098420BD0B0F1804F08D01B4B984205D00C
:1022C0001A4B984202D01A4B984204D14FF68F73A2
:1022D0001A404B881A43174B984207D0164B984226
:1022E00004D04FF6FF431A40CB881A4302808B88F4
:1022F00083850B8803850A4B98420BD0094B984283
:1023000008D00E4B984205D00D4B984202D00D4B91
:10231000984201D10B7A0386012383827047000023
:10232000002C01400034014000040040000800403F
:10233000000C00400010004000140040004001402C
:10234000004401400048014010B540F225511D48AD
:1023500000F04AF810B31B4800F002F9C4B21A4862
:10236000008800F40040C8B91748008800F4804095
:1023700060B10A2C03D000201349088020E01248E5
:10238000008840F400401049088019E00D2C06D167
:102390000D48008840F480400B49088010E00A484E
:1023A0000088C0F30D0009490C5407480088401C00
:1023B0000549088008460088C72801DD00200880FC
:1023C00010BD000000380140280000208C140020BF
:1023D00021B1828942F40052828104E082894DF663
:1023E000FF731A408281704770B5024600240023B3
:1023F0000025002040F66A16B14200D100BFC1F3AB
:10240000421501F01F03012606FA03F3012D02D144
:102410009689334006E0022D02D1168A334001E04E
:10242000968A33400C12012606FA04F416883440CA
:1024300013B10CB1012000E0002070BDF0B50346DF
:10244000002400260025002040F66A17B94200D17A
:1024500000BF1846C1F3421401F01F06012707FA16
:1024600006F5012C01D10C3004E0022C01D1103012
:1024700000E014301AB107682F43076002E00768D4
:10248000AF430760F0BD00002DE9F04786B0054678
:102490000E460024A24600BFA1460027B08900B125
:1024A00000BF2F462C8A4CF6FF700440F08804438E
:1024B0002C82AC894EF6F3100440B0883189084371
:1024C000718908430443AC81AC8A4FF6FF40044055
:1024D000B0890443AC8201A8FFF738FC1F4887424B
:1024E00002D1DDF810A001E0DDF80CA0A88900F40D
:1024F000004040B10AEBCA0000EB0A103168490005
:10250000B0FBF1F807E00AEBCA0000EB0A103168F3
:102510008900B0FBF1F86420B8FBF0F00401200959
:10252000642101FB1089A88900F4004040B13220E9
:1025300000EBC900B0FBF1F000F00700044308E035
:10254000322000EB09106421B0FBF1F000F00F0025
:1025500004432C8106B0BDE8F0870000003801403C
:1025600001468888C0F30800704700BF704700002C
:102570004FF0E020006920F004004FF0E0210861F6
:102580000920074908700846007800EB4001C1EBBC
:10259000C0104FF6FF7101EAC00002490880704781
:1025A0001E0000202000002010B5044605E04FF476
:1025B0007A7000F005F8601E84B2002CF7DC10BDC4
:1025C000002120F07F400D4A127842434FF0E02373
:1025D0005A6100229A6101221A6100BF4FF0E02285
:1025E000116901F001021AB101F48032002AF5D01C
:1025F00000224FF0E0231A619A6170471E0000200C
:102600001FB501210820FFF791FB01210846FFF7C4
:102610008DFB28208DF80F000320ADF80C008DF8FD
:102620000E0003A92148FEF769F900210120FEF7F9
:1026300045F90120009000208DF8040010208DF84D
:10264000050001208DF806006846FDF7DDFE062036
:102650008DF8080003208DF8090001208DF80A008C
:102660008DF80B0002A8FFF7D1F801210846FEF70C
:1026700025F90220009000208DF8040010208DF82C
:10268000050001208DF806006846FDF7BDFE072015
:102690008DF8080003208DF8090001208DF80A004C
:1026A0008DF80B0002A8FFF7B1F81FBD000C014028
:1026B0003EB504460D46002010214FF6FF724FF440
:1026C0007843CDE9002102904EA20146FEF790FC2E
:1026D000002010214FF6FF724FF47843CDE900211E
:1026E00002904AA201462020FEF7E5FF10204FF697
:1026F000FF714FF478420223CDE900210290224677
:1027000000213020FEF78CFF002010214FF6FF72D1
:102710004FF47843CDE9002102903DA201465020BC
:10272000FEF766FC002010214FF6FF724FF478434D
:10273000CDE90021029037A201466020FEF7BBFFE1
:10274000002010214FF6FF724FF47843CDE90021AD
:10275000029031A201467020FEF74AFC00201021B1
:102760004FF6FF724FF47843CDE9002102902BA27F
:102770001421FEF73DFC002010214FF6FF724FF4AC
:102780007843CDE90021029020A214214020FEF7D9
:1027900092FF10204FF6FF714FF478420323CDE9EA
:1027A000002102902A4614215020FEF739FF002014
:1027B00010214FF6FF724FF47843CDE900210290CB
:1027C00019A22821FEF714FC002010214FF6FF72F9
:1027D0004FF47843CDE9002102900CA2282140203B
:1027E000FEF769FF10204FF6FF714FF47842032384
:1027F000CDE9002102900F48027828215020FEF7F1
:102800000FFF3EBDB5A5BCDB000000003A00000094
:10281000D4AA00002F000000CAB10000B3B5CEBB9F
:10282000D3E0C1BF00000000B3B5CEBBD7DCC1BF51
:1028300000000000140000208EB0002700260020B9
:102840000B900C900D90142106A8FDF7BEFC002003
:10285000049005900025FFF78BFEFEF721FA4FF656
:10286000FF70A0238022002100900846FEF7D9F9CE
:10287000FEF78CFFFEF7AAFFFFF7A6FBFFF7C0FEEF
:102880004FF4E13000F002FCFFF748FC41F61F4135
:10289000C720FFF7E1FB9CE2FE480078FE4909787B
:1028A000401AC6B2002004E00021FC4A1154411C29
:1028B000C8B2C828F8DBFA480078642868D1002438
:1028C0004FF000084FF0000917E004EB8400F549D1
:1028D00001EB80004089484506D304EB840001EBFE
:1028E0008000B0F80A90A046601CC4B2002004EB3F
:1028F0008401EC4A02EB81014881642CE5DBEA4863
:10290000007838B9002E05DD3246E6494046FDF72D
:10291000C5FD05E033463A464146E248FEF7AEFFC4
:102920000020DF4908704FF6FF708C2380223C2185
:1029300000900020FEF775F9002010214FF6FF727D
:102940004FF47843CDE900210290D8A23C21FEF754
:102950004FFB10204FF6FF714FF478420323CDE96F
:1029600000210290CE4802783C213020FEF758FE2C
:10297000002010214FF6FF724FF47843CDE900217B
:102980000290CCA23C215020FEF795FE002500BF0E
:10299000C94800F055FBBF480078BF490978401A84
:1029A000C6B2002E0EDD00BF01221102C348FEF7A1
:1029B00086F800BF00BF00224FF40071BF48FEF749
:1029C0007EF828E0002600BF00224FF48071BB484B
:1029D000FEF775F800BF00BF01225102B748FEF7AD
:1029E0006EF800BFB0480078A8B94FF6FF706423B6
:1029F00080223C2100900020FEF713F900201021D6
:102A00004FF6FF724FF47843CDE900210290ACA25B
:102A10003C21FEF7EDFAAD480078AD490870A248B8
:102A20000078AC490870A048007890B93146AA48AF
:102A30000078FFF73DFE002010214FF6FF724FF4A3
:102A40007843CDE900210290A4A28C21FEF7D0FAB0
:102A500011E03146A0480078FFF72AFE002010213F
:102A60004FF6FF724FF47843CDE9002102909DA20A
:102A70008C21FEF7BDFAFEF727F8012240F225511E
:102A80009A48FFF7DBFC01219848FFF7A1FC06A854
:102A900000F048FA04AA0BA906A800F089FA03A9D5
:102AA0000BA800F0A7F99DF80C0018B99DF80D00CF
:102AB000002852D0002240F225518C48FFF7BEFC7E
:102AC00000218A48FFF784FC002E47DC7648007816
:102AD000F0BB4FF6FF708C2380223C210090002039
:102AE000FEF79FF8002010214FF6FF724FF4784355
:102AF000CDE90021029072A23C21FEF779FA00BFD5
:102B000000224FF480716D48FDF7D9FF00BF00240B
:102B100016E000BF00224FF400716848FDF7CFFFB8
:102B200000BF3220FFF740FD00BF01225102634881
:102B3000FDF7C5FF00BF3220FFF736FD601CC4B2B1
:102B40000A2CE6DB4FF6FF708C2380223C2100E04C
:102B500004E000900020FEF764F822E1504800787D
:102B6000401C4F49087008460078642807DD0020A3
:102B70008DF80C008DF80D006420087011E1002420
:102B8000002010214FF6FF724FF47843CDE9002169
:102B9000029046A23C21FEF72BFA10204FF6FF715F
:102BA0004FF478420323CDE9002102903C4802789B
:102BB0003C213020FEF734FD002010214FF6FF723B
:102BC0004FF47843CDE9002102903AA23C215020F5
:102BD000FEF771FD00BF681C844259DA04EB8400E3
:102BE000304911F820009DF80C10884251D104EBB7
:102BF00084002C4901EB800040789DF80D1088423C
:102C000047D104EB8400274901EB800080789DF8D0
:102C1000101088427AD104EB8400224901EB800035
:102C2000C0789DF81110884270D104EB84001D49D2
:102C300001EB800000799DF81210884266D104EB08
:102C40008400184901EB800040799DF813108842F8
:102C50005CD104EB8400134901EB800080799DF87E
:102C60001410884252D104EB84000E4901EB80001D
:102C7000C0799DF81510884248D104EB84000949B9
:102C800001EB8000007A9DF8161088423ED12FE0BB
:102C90003FE03BE014000020150000208C140020D1
:102CA00018000020BC0C002019000020CAB6B1F0AA
:102CB000D6D00000250000003C00002000080140A4
:102CC000B3B5CEBBD2D1C2FA000000001B00002079
:102CD0001C0000201A00002017000020C8EBBFDAFB
:102CE00000000000B3F6BFDA000000000038014029
:102CF00004EB8400374901EB80004089401C04EB61
:102D00008401344A02EB8101488149E0601CC4B26D
:102D100061E79DF80C0005EB85012E4A02F82100C1
:102D20009DF80D0005EB850102EB810148709DF8CF
:102D3000100005EB850102EB810188709DF81110F0
:102D400005EB850002EB8000C1709DF8121005EBC9
:102D5000850002EB800001719DF8131005EB8500E2
:102D600002EB800041719DF8141005EB850002EB29
:102D7000800081719DF8151005EB850002EB800045
:102D8000C1719DF8161005EB850002EB8000017201
:102D9000012005EB850102EB81014881681CC5B269
:102DA00000BF00208DF80C008DF80D0000BF05E07D
:102DB000002106AA11540BAA1154401C1428F7DB59
:102DC000002004E00021044A1154411CC8B2C82864
:102DD000F8DB61E5BC0C00208C14002010B5024625
:102DE000012000E050430B1EA1F10104E1B2F9D132
:102DF00010BD000010B50246002067E000EB400364
:102E0000344C04EB83039B781478A3425CD100EB31
:102E10004003304C04EB8303DB785478A34253D156
:102E200000EB40032B4C04EB83031B799478A34203
:102E30004AD100EB4003274C04EB83035B79D47841
:102E4000A34241D100EB4003224C04EB83039B7966
:102E50001479A34238D100EB40031E4C04EB8303EA
:102E6000DB795479A3422FD100EB4003194C04EBDA
:102E700083031B7A9479A34226D100EB4003154CBF
:102E800004EB83035B7AD479A3421DD100EB4003AA
:102E9000104C04EB83039B7A147AA34214D100EB09
:102EA00040030C4C04EB8303DB7A547AA3420BD12E
:102EB00000EB4003074C14F823300B7000EB400389
:102EC00004EB83035B784B70431CD8B21E2895DB60
:102ED00010BD0000A47600081048007820B1002042
:102EE0000E490870012070470C48407820B100203E
:102EF0000A4948700220F6E70948007820B100200E
:102F0000074908700320EEE70548407820B100200B
:102F1000034948700420E6E700BFE4E730000020E2
:102F20003200002030B5034600203BE01F49095C19
:102F3000302936D11D4A411C515C582931D1811CA0
:102F4000515C41292DD1C11C515C352929D1002169
:102F500021E04218121D154CA25C302A1AD14218E9
:102F6000521DA25C582A15D14218921DA25C352A26
:102F700010D14218D21DA25C412A0BD1002206E0DA
:102F8000041D1444094D2C5D9C54541CE2B28A4229
:102F9000F6DB04E0491CC0F1C1028A42D9DC00BF63
:102FA00002E0401CC828C1DB00BF30BD8C140020EB
:102FB00070B50B4614460022002109E0455C202D27
:102FC00004D0455C5D54551CEAB200E002E0491CA7
:102FD0001529F3DB00BF551CE9B209E0455C25B1BA
:102FE000465C8D1A6D1E665500E003E04D1CE9B28B
:102FF0001529F3DD00BF70BD10B505210F48FFF79F
:103000004EF94FF4A070FFF7CFFA0F210B48FFF7EE
:1030100046F94FF47A70FFF7C7FA19210748FFF70E
:103020003EF94FF49670FFF7BFFA0F210348FFF700
:1030300036F94FF47A70FFF7B7FA10BD000400407C
:10304000014610480078E0B100200E4A107000BF21
:1030500013E000EB800201EB8202127C012A0AD10C
:1030600000EB800201EB82025289521C00EB8003CC
:1030700001EB83035A81421CD0B2034A127890427A
:10308000E7DB7047370000201400002010B586B041
:10309000044601210920FEF749FE01210420FDF725
:1030A000B9FC4020ADF8140003208DF8160018205C
:1030B0008DF8170005A91E48FDF720FC8020ADF80B
:1030C000140004208DF8170005A91948FDF716FC17
:1030D00001218803FEF72AFE25208DF80000032039
:1030E0008DF801008DF8020001208DF8030068467C
:1030F000FEF78CFB01940020ADF80800ADF80A0043
:10310000ADF80C00ADF810000C20ADF80E0001A9D0
:103110000848FFF7B9F9012240F225510548FFF7A9
:103120008DF901210348FFF753F906B010BD0000E7
:1031300000080140003801404FF47F0C1CEAD01217
:103140001EBF1CEAD11392EA0C0F93EA0C0F00F099
:10315000858090EA010F48BF42F4807240F4000C71
:1031600041F400002CF07F4120F07F4000B5814207
:10317000A2EB03020FF2081CACEB504EC0F10000B2
:103180009EF800E04FEA4E0E00FB0EFC38BF4900EF
:103190004FEA2C1C02F5FA020CFB0EF34FEACE1E8E
:1031A0004FEA112C4FEAC1210EEB635E42EB224243
:1031B0000EFB0CFC4FEA1C5300FB03114FEA112CD1
:1031C0004FEA01310EFB0CFC4FEADC4C00FB0C110A
:1031D000C14228BF09184CEB03335DF804EB10EB38
:1031E000410143EBC250B2F57C0F38BF704729D57F
:1031F00012F0F00F1CBF00F1C04000F0004070471B
:10320000008182838485868788898B8C8D8E8F91BF
:103210009293959697999A9C9D9FA0A2A3A5A7A8E3
:10322000AAACAEB0B2B3B5B7B9BCBEC0C2C5C7C90F
:10323000CCCED1D4D7D9DCDFE2E6E9ECF0F3F7FA73
:10324000FE0000004FEA400C0CF1807CBCF17E4F88
:1032500028BF7047B0F1C04000F02FB990EA010FCD
:103260000CEAD11348BF42F48072624538BF63450F
:1032700007D213F47F0F16D080EA010000F000405F
:10328000704710B500F0D3F8097EFC3E00F005B899
:1032900080EA010000F00040704780EA010000F081
:1032A000004000F00AB912F47F0F04BF02487047D3
:1032B00080EA010000F001B90000C07FC10DD1F12A
:1032C0009E0206DB4FEA002343F0004323FA02F09C
:1032D0007047004207D54FEA4001B1F1FE4F02D2DC
:1032E0004FF00000704710B500F0A1F8499224801B
:1032F000002070476FEA20007047000010F0004186
:1033000048BF4042B0FA80F310FA03F2C3F19D03C4
:103310000BD051EAC35101EB1220530638BF70475E
:1033200000F1010008BF20F0010070474FF47F0C4E
:103330001CEAD0121EBF1CEAD11392EA0C0F93EACA
:103340000C0F00F0478090EA010F48BF42F48072F2
:103350004FF0004C4CEA00204CEA012102EB030242
:10336000A0FB0113A2F50002002918BF43F00103DE
:103370005B0028BF4FEA330342EB22425FEA132C83
:103380004CEBC2502EBFBCEB436FB2F57C0F7047C5
:103390004FEA036CBCF1004F08BF20F00100B2F50A
:1033A0007C0F38BF70470BD582F0FF0212F5803FCB
:1033B000C8BF704700F1C040D8BF00F00040704760
:1033C00000F5000C5FEA4C0C48BF7047B0F1C040FC
:1033D00000F073B890EA010F0CEAD11348BF42F431
:1033E0008072624538BF634504D280EA010000F074
:1033F0000040704710B500F01AF800BF8900013E88
:1034000000F007B800F009B85FEA410C5FEA1C6CF5
:1034100008D080EA010000F050B85FEA400C5FEA93
:103420001C6CF6D14FF00040A0F5800070470EF103
:10343000020E2EF0030E5EF8044B244204D44FEA31
:103440004102B2F17F4F11D84FEA4003B3F17F4FF1
:103450000CD80ED14FEAD07CB2F17F4F0CEB4C0C64
:103460000CF1020C08BF4CEBD17C04E04FF0080CCF
:1034700001E04FEAD17C0CEB4C0324FA03F404F096
:103480000704B4F1040C06D20EEB840CBDE8104026
:103490004CF0010C6047DFE80CF0070802024FF027
:1034A0000040A0F5800010BD0846420018BFD2F1D0
:1034B000807288BF00F0004010BDFF2141EAD0506B
:1034C000C005704700000000000000000000000080
:1034D00000000404040404000004000014140A00A2
:1034E000000000000000000000000A0A1F0A0A1F76
:1034F0000A0A000000040E1505060C14150E04003F
:10350000000012150D152E2C2A1200000000040ACE
:103510000A361515291600000202010000000000FD
:103520000000000010080804040404040808100047
:10353000020404080808080804040200000000044B
:10354000150E0E150400000000000008083E0808D3
:103550000000000000000000000000000202010066
:1035600000000000003F000000000000000000001C
:1035700000000000000200000020101008080404F1
:103580000202010000000E1111111111110E0000B4
:103590000000040604040404040E000000000E11E0
:1035A00011080402011F000000000E11100C101081
:1035B000110E00000000080C0C0A091F081C000076
:1035C00000001F01010F1110110E000000000C126D
:1035D000010D1311110E000000001E100808040454
:1035E0000404000000000E11110E1111110E000054
:1035F00000000E111119161009060000000000004D
:1036000004000000000400000000000000040000AE
:103610000004040000001008040202040810000066
:10362000000000003F003F00000000000000020416
:10363000081010080402000000000E111108040414
:103640000004000000001C22292D2D1D221C00005A
:10365000000004040C0A0A1E1233000000000F12BE
:10366000120E1212120F000000001E1101010101C2
:10367000110E000000000F1212121212120F0000A1
:1036800000001F120A0E0A02121F000000001F1283
:103690000A0E0A020207000000001C120101391183
:1036A000120C000000003312121E1212123300001E
:1036B00000001F0404040404041F000000003E086E
:1036C0000808080808080907000037120A060A1245
:1036D000123700000000070202020202223F00002F
:1036E00000003B1B1B1B15151535000000003B128D
:1036F00016161A1A1217000000000E1111111111DE
:10370000110E000000000F12120E0202020700004C
:1037100000000E1111111117190E180000000F12E0
:10372000120E0A121237000000001E1101060810C6
:10373000110F000000001F1504040404040E000013
:103740000000331212121212120C00000000331289
:10375000120A0A0C040400000000151515150E0AC3
:103760000A0A000000001B0A0A04040A0A1B0000DF
:1037700000001B0A0A0A0404040E000000001F09CE
:1037800008040402121F00001C04040404040404BE
:1037900004041C00000202040404080808101000BD
:1037A0000E0808080808080808080E00040A0000A7
:1037B0000000000000000000000000000000000009
:1037C0000000003F020400000000000000000000B4
:1037D00000000000000C121C123C0000000302025A
:1037E000020E1212120E000000000000001C120255
:1037F000120C000000181010101C1212123C0000D5
:1038000000000000000C121E021C0000001824041E
:10381000041E0404041E000000000000003C120C02
:10382000021C221C00030202020E121212370000B8
:103830000004040000060404040E00000008080050
:10384000000C08080808080700030202021A0A060A
:103850000A1300000007040404040404041F000009
:1038600000000000000F15151515000000000000F5
:10387000000F12121237000000000000000C12129C
:10388000120C000000000000000F1212120E0207BE
:1038900000000000001C1212121C10380000000072
:1038A000001B06020207000000000000001E020CC0
:1038B000101E000000000004041E0404041C00008C
:1038C00000000000001B1212123C0000000000006B
:1038D000001B0A0A04040000000000000015150E79
:1038E0000A0A000000000000001B0A040A1B000076
:1038F00000000000003312120C0804030000000056
:10390000001E0804041E000018080808080C080817
:10391000080818000808080808080808080808081F
:103920000604040404080404040406001609000044
:103930000000000000000000000000000000000087
:10394000000000000000000000000008080808084F
:10395000080800001818000000486C24120000003D
:1039600000000000000000000000002424247F125A
:1039700012127F12121200000000081C2A2A0A0CE0
:103980001828282A2A1C08080000002225151515C9
:103990002A585454542200000000000C1212120A3B
:1039A00076252911916E0000000606040300000030
:1039B000000000000000000000402010100808086F
:1039C0000808081010204000000204080810101019
:1039D00010101008080402000000000008086B1C0A
:1039E0001C6B080800000000000000000808080820
:1039F0007F08080808000000000000000000000028
:103A000000000000060604030000000000000000A3
:103A1000FE000000000000000000000000000000A8
:103A2000000000000606000000008040402020103A
:103A30001008080404020200000000182442424258
:103A40004242424224180000000000080E08080804
:103A500008080808083E00000000003C42424220DE
:103A600020100804427E00000000003C4242201862
:103A700020404042221C0000000000203028242466
:103A800022227E20207800000000007E0202021A1E
:103A900026404042221C0000000000382402021A86
:103AA00026424242241800000000007E222210100C
:103AB00008080808080800000000003C42424224B0
:103AC00018244242423C00000000001824424242B6
:103AD00064584040241C000000000000000018183A
:103AE000000000001818000000000000000000089E
:103AF0000000000000080804000000402010080436
:103B000002040810204000000000000000007F00B8
:103B100000007F00000000000000000204081020E8
:103B200040201008040200000000003C42424640D1
:103B300020101000181800000000001C225A5555D3
:103B400055552D42221C00000000000808181414CE
:103B5000243C224242E700000000001F2222221ED5
:103B600022424242221F00000000007C424201012A
:103B700001010142221C00000000001F22424242BB
:103B800042424242221F00000000003F4212121E29
:103B900012120242423F00000000003F4212121E79
:103BA00012120202020700000000003C2222010162
:103BB00001712122221C0000000000E74242424223
:103BC0007E42424242E700000000003E080808082A
:103BD00008080808083E00000000007C10101010C3
:103BE000101010101010110F0000007722120A0E92
:103BF0000A121222227700000000000702020202CD
:103C000002020202427F000000000077363636369C
:103C10002A2A2A2A2A6B0000000000E346464A4A64
:103C200052525262624700000000001C2241414192
:103C300041414141221C00000000003F42424242FB
:103C40003E020202020700000000001C2241414126
:103C500041414D53321C60000000003F4242423E51
:103C60001212222242C700000000007C42420204DD
:103C700018204042423E00000000007F490808082A
:103C800008080808081C0000000000E74242424201
:103C900042424242423C0000000000E742422224ED
:103CA00024141418080800000000006B4949494911
:103CB0005555362222220000000000E74224241835
:103CC0001818242442E70000000000772222141470
:103CD00008080808081C00000000007E21201010C1
:103CE00008040442423F0000007808080808080859
:103CF0000808080808087800000002020404080800
:103D00000810102020204040001E1010101010102D
:103D10001010101010101E000038440000000000A9
:103D20000000000000000000000000000000000093
:103D300000000000000000FF000608000000000076
:103D40000000000000000000000000000000003C37
:103D50004278444242FC0000000000030202021AC2
:103D600026424242261A00000000000000000038EF
:103D700044020202443800000000006040404078E5
:103D80004442424264D80000000000000000003CB1
:103D9000427E0202423C0000000000F08808087EDB
:103DA00008080808083E0000000000000000007C31
:103DB00022221C023C42423C000000030202023A62
:103DC0004642424242E700000000000C0C00000E98
:103DD00008080808083E00000000003030000038E5
:103DE000202020202020221E000000030202027258
:103DF000120A1612227700000000000E08080808B8
:103E000008080808083E0000000000000000007FCD
:103E10009292929292B70000000000000000003BD6
:103E20004642424242E70000000000000000003C21
:103E300042424242423C0000000000000000001BE1
:103E400026424242221E02070000000000000078C5
:103E500044424242447840E0000000000000007705
:103E60004C040404041F0000000000000000007C5B
:103E700042023C40423E0000000000000008083EB4
:103E80000808080808300000000000000000006377
:103E90004242424262DC000000000000000000E7F5
:103EA000422424140808000000000000000000EB79
:103EB000494955552222000000000000000000760C
:103EC00024181818246E000000000000000000E70D
:103ED0004224241418080807000000000000007E97
:103EE00022100808447E000000C02020202020105E
:103EF000202020202020C0001010101010101010C2
:103F000010101010101010100006080808080810F3
:103F100008080808080806000C32C200000000006B
:103F20000000000000000000000000000000000091
:103F30000000000000000000000000000000000081
:103F40000000000000000000000000000000000071
:103F50000000000000000000000000000000000061
:103F60006000600060006000600060006000400071
:103F70002000200020000000000000006000600021
:103F80006000000000000000000000006006600605
:103F90003003980188004400000000000000000089
:103FA0000000000000000000000000000000000011
:103FB0000000000000000000000000000000000001
:103FC0001002100210021002FE07FE07080208018C
:103FD000080108010801FE07FE07040104010401AD
:103FE000040100000000000000000000000040008C
:103FF0004000F00158034C03CC034C005800700003
:10400000E000C001C00140034C035C034C034801C5
:10401000F000400040000000000000000000000030
:104020000E010A01910091009100510051003A00E7
:10403000AE03A0025004500448044804480484021B
:1040400084030000000000000000000000000000E9
:1040500038006C006C006C006C006C002C00980741
:104060001C011A01330133016301E300C308C609CF
:104070003C07000000000000000000000C001C00D5
:104080001000100008000400000000000000000004
:104090000000000000000000000000000000000020
:1040A000000000000000000000000000000400020A
:1040B000000180008000400040002000200020001F
:1040C00020002000200020004000400080008000F0
:1040D00000010002000400000000000002000400D3
:1040E00008001000100020002000400040004000A8
:1040F0004000400040004000200020001000100060
:1041000008000400020000000000000000000000A1
:10411000000000004000C0004000460C4E0FD001DF
:10412000F0015E0F460C400040004000000000001F
:10413000000000000000000000000000000000007F
:10414000000000000000400040004000400040002F
:10415000FE0F400040004000400040000000000012
:10416000000000000000000000000000000000004F
:10417000000000000000000000000000000000003F
:104180000000000000000000000000000C001C0007
:1041900010001000080004000000000000000000F3
:1041A000000000000000000000000000000000000F
:1041B000FE070000000000000000000000000000FA
:1041C00000000000000000000000000000000000EF
:1041D00000000000000000000000000000000000DF
:1041E0000000000000000000000000001C001C0097
:1041F0001C00000000000000000000000004000699
:104200000002000300010001800080004000400027
:1042100060002000200010001000080008000C00C2
:104220000400060002000000000000000000000082
:104230000000F00098010C030C03060606060606B3
:10424000060606060606060606060C030C0398017B
:10425000F00000000000000000000000000000006E
:10426000000040007C0060006000600060006000B2
:10427000600060006000600060006000600060003E
:10428000FC0300000000000000000000000000002F
:104290000000F80084010203060306030003000186
:1042A0008001C00060002000100008020402060225
:1042B000FE030000000000000000000000000000FD
:1042C00000007800C6008601860180018001C000E0
:1042D000700080010001000300030603060386014D
:1042E000F8000000000000000000000000000000D6
:1042F000000080018001C001A001A001900188019F
:10430000880184018201FE0F80018001800180010B
:10431000E0070000000000000000000000000000B6
:104320000000FC0304000400040004000400F40086
:104330008C010403000300030603060382018401C9
:10434000F800000000000000000000000000000075
:104350000000E00118030C030C0004000600E60155
:1043600016030E0606060606060604060C021803C9
:10437000F00000000000000000000000000000004D
:104380000000F8070C06040204010001000180008F
:10439000800040004000400060006000600060005D
:1043A00060000000000000000000000000000000AD
:1043B0000000F8010C030606060606060C021C03A4
:1043C000F000C8010C0306060606060606060C03E6
:1043D000F0010000000000000000000000000000EC
:1043E0000000F0000C010C03060206060606060695
:1043F00006078C0678060006000300030C018C01FA
:104400007800000000000000000000000000000034
:10441000000000000000000000000000E000E000DC
:10442000E00000000000000000000000E000E000EC
:10443000E00000000000000000000000000000009C
:1044400000000000000000000000000060006000AC
:1044500000000000000000000000000000006000FC
:10446000600040002000200000000000000000006C
:10447000000400020001800040002000100008003D
:10448000040008001000200040008000000100022D
:104490000004000000000000000000000000000018
:1044A000000000000000000000000000FE07000007
:1044B00000000000FE0700000000000000000000F7
:1044C00000000000000000000000000000000000EC
:1044D00004000800100020004000800000010002DD
:1044E00000040002000180004000200010000800CD
:1044F00004000000000000000000000000000000B8
:104500000000E0031806040C040C0C0C0C0C000753
:10451000800140004000400000000000E000E0009A
:10452000E0000000000000000000000000000000AB
:10453000E00018030C02CC0564056605A605B60468
:10454000B604B604B604B602E4010C040C02180367
:10455000F00000000000000000000000000000006B
:104560000000600060005000D000900090008800C3
:1045700088010801F8010403040304020202020690
:104580000F0F00000000000000000000000000000D
:104590000000FE008C030C030C030C030C038C01C5
:1045A000FC000C030C020C060C060C060C060C039B
:1045B000FE010000000000000000000000000000FC
:1045C0000000E00318030C060C04040406000600B7
:1045D000060006000600060006040C040C02180380
:1045E000F0000000000000000000000000000000DB
:1045F00000007F008C010C030C030C060C060C065B
:104600000C060C060C060C060C060C030C038C01A5
:104610007F0000000000000000000000000000001B
:104620000000FF0306030604060406008600860059
:10463000FE008600860086000600060406040602C8
:10464000FF03000000000000000000000000000068
:104650000000FF0306030604060406008600860029
:10466000FE008600860086000600060006000600A2
:104670001F0000000000000000000000000000001B
:104680000000F00018010C020C02040206000600F3
:1046900006000600C60F060306030C030C031803EE
:1046A000F00000000000000000000000000000001A
:1046B00000000F0F06060606060606060606060694
:1046C000FE07060606060606060606060606060691
:1046D0000F0F0000000000000000000000000000BC
:1046E0000000FC036000600060006000600060008B
:1046F00060006000600060006000600060006000BA
:10470000FC030000000000000000000000000000AA
:104710000000F807C000C000C000C000C000C0001A
:10472000C000C000C000C000C000C000C000C00089
:10473000C000C60066003C00000000000000000051
:104740000000CF038601C600460026001600360092
:104750002E006E004600C600860086010601060394
:104760008F070000000000000000000000000000B3
:1047700000001F00060006000600060006000600F6
:1047800006000600060006000600060406040602EF
:10479000FF03000000000000000000000000000017
:1047A00000000707860386038E038E034E034E0325
:1047B0004A035A035A033A03320332033203120301
:1047C000870700000000000000000000000000005B
:1047D00000008E0F0C021C021C0234023402640220
:1047E00064024402C40284028403840304030403B5
:1047F0001F02000000000000000000000000000098
:104800000000F00098010C030C02060606060606DE
:10481000060606060606060606060C020C039801A6
:10482000F000000000000000000000000000000098
:104830000000FF0006030606060606060606060634
:104840008603FE00060006000600060006000600BD
:104850001F00000000000000000000000000000039
:104860000000F00098010C030C020606060606067E
:10487000060606060606060676064C02CC039801D6
:10488000F0008007000300000000000000000000AE
:104890000000FF01060306060606060606060603D6
:1048A000FE004600C60086008601060306030606D3
:1048B0000F0E0000000000000000000000000000DB
:1048C0000000F8020C030602060206000E003C007F
:1048D000F800E003800300070206020606060C0348
:1048E000F0010000000000000000000000000000D7
:1048F0000000FE076204610861086000600060005B
:1049000060006000600060006000600060006000A7
:10491000F80100000000000000000000000000009E
:1049200000001E070C020C020C020C020C020C020E
:104930000C020C020C020C020C020C020C021801FC
:10494000F000000000000000000000000000000077
:1049500000000F070602040104010C010C0188008D
:10496000880098009800500050007000300020002F
:104970002000000000000000000000000000000017
:104980000000F70E62044204460446046402640216
:10499000E402E4029C029C019801980188018800CD
:1049A000880000000000000000000000000000007F
:1049B00000009E070C01080118019000B000600083
:1049C000200060006000D00090008801080104030E
:1049D0008E07000000000000000000000000000042
:1049E00000000F0F060404020C0208011801B800B1
:1049F000B000700060006000600060006000600057
:104A0000F8010000000000000000000000000000AD
:104A10000000FC070C020603020180018000400038
:104A20004000200020001000180008040C040402BC
:104A3000FE0300000000000000000000E003200072
:104A40002000200020002000200020002000200066
:104A50002000200020002000200020002000200056
:104A600020002000E0030000000000000000000023
:104A700004000400080008001000100010002000CE
:104A8000200040004000C0008000800000010001C4
:104A90000002000200020004000000007C00400050
:104AA0004000400040004000400040004000400006
:104AB00040004000400040004000400040004000F6
:104AC000400040007C0000000000600090000801F1
:104AD00000000000000000000000000000000000D6
:104AE00000000000000000000000000000000000C6
:104AF00000000000000000000000000000000000B6
:104B000000000000000000000000000000000000A5
:104B10000000000000000000000000000000000095
:104B2000000000000000FF0F0000000018006000FF
:104B30000000000000000000000000000000000075
:104B40000000000000000000000000000000000065
:104B50000000000000000000000000000000000055
:104B6000000000000000000000000000F0010C0345
:104B70000C030003E0031C030E03060306038E0B65
:104B80007C0E00000000000000000000000000009B
:104B900008000E000C000C000C000C00CC013C03C3
:104BA0001C060C060C060C060C060C060C021C035C
:104BB000E401000000000000000000000000000010
:104BC000000000000000000000000000F0008C0168
:104BD0008C01860106000600060006020C020C018C
:104BE000F0000000000000000000000000000000D5
:104BF0000002C003000300030003000378038C03DA
:104C00000C030603060306030603060304038C07CE
:104C1000780100000000000000000000000000001B
:104C2000000000000000000000000000E001180388
:104C300008020C060C06FC070C000C0018041802F5
:104C4000E001000000000000000000000000000083
:104C50000000C0036006300630003000FE01300066
:104C600030003000300030003000300030003000C4
:104C7000FC01000000000000000000000000000037
:104C8000000000000000000000000000F007D8064F
:104C90008C018C018C019801F8000C00FC00CC0305
:104CA000060306038E03F800000000000000000069
:104CB00008000E000C000C000C000C00EC011C03A2
:104CC0000C030C030C030C030C030C030C030C036C
:104CD0009E0700000000000000000000000000002F
:104CE0000000600060000000000040007C006000E8
:104CF00060006000600060006000600060006000B4
:104D0000FC030000000000000000000000000000A4
:104D10000000C001C001000000000001F00180019E
:104D2000800180018001800180018001800180017B
:104D300080018001CC007C00000000000000000029
:104D400008000E000C000C000C000C008C038C0002
:104D50008C004C006C005C008C008C010C010C037E
:104D60009E0700000000000000000000000000009E
:104D700040007C0060006000600060006000600037
:104D80006000600060006000600060006000600023
:104D9000FC03000000000000000000000000000014
:104DA0000000000000000000000000003707EE06D1
:104DB0006606660666066606660666066606660693
:104DC000FF0F0000000000000000000000000000D5
:104DD000000000000000000000000000EE011C03C5
:104DE0000C030C030C030C030C030C030C030C034B
:104DF0009E0700000000000000000000000000000E
:104E0000000000000000000000000000F000980119
:104E10000C03060606060606060606060C030C0329
:104E2000F000000000000000000000000000000092
:104E3000000000000000000000000000EE011C0364
:104E40000C060C060C060C060C060C060C031C03C8
:104E5000EC010C000C003E0000000000000000000F
:104E600000000000000000000000000078028C0339
:104E70000C030603060306030603060304038C0360
:104E8000780300030003C0070000000000000000DA
:104E90000000000000000000000000009F03580612
:104EA000380618001800180018001800180018001C
:104EB000FF000000000000000000000000000000F3
:104EC000000000000000000000000000F0031C03D0
:104ED0000C020C023800F000C003040304038C032E
:104EE000FC010000000000000000000000000000C5
:104EF000000000002000200030003000FE013000E3
:104F0000300030003000300030003000300230021D
:104F1000E0010000000000000000000000000000B0
:104F20000000000000000000000008028E030C03D7
:104F30000C030C030C030C030C030C030C039C0765
:104F400078010000000000000000000000000000E8
:104F50000000000000000000000000001E070C021E
:104F60000801080118019000B000B0006000600066
:104F70002000000000000000000000000000000011
:104F8000000000000000000000000000F70E6204B6
:104F9000460464026402EC029C01980198019801A5
:104FA00008000000000000000000000000000000F9
:104FB000000000000000000000000000BC07180115
:104FC0001001B00060006000E000900008010803DC
:104FD0009E0700000000000000000000000000002C
:104FE0000000000000000000000000009E07080113
:104FF0000801080190009000B000600060006000AF
:105000002000200024001C00000000000000000020
:10501000000000000000000000000000FC0184010E
:10502000C4004400600020003000180208020C0395
:10503000FC010000000000000000000000038000F0
:1050400080008000800080008000800080004000A0
:1050500020004000800080008000800080008000F0
:10506000800080000003000040004000400040003D
:105070004000400040004000400040004000400030
:105080004000400040004000400040004000400020
:105090004000400040004000000000000C001000F4
:1050A0001000100010001000100010001000200070
:1050B0004000200010001000100010001000100030
:1050C000100010000C00000000001C002204C204AC
:1050D000800300000000000000000000000000004D
:1050E00000000000000000000000000000000000C0
:1050F00000000000000000000000000000000000B0
:10510000000000000000000000000000000000009F
:10511000000000000000000000000000000000008F
:10512000000000000000000000000000000000007F
:10513000000000000000000000000000000000006F
:105140000000C001C001C001C001C001C001C00118
:1051500080008000800080008000800080000000CF
:105160000000000000008001C003C00380010000B7
:105170000000000000000000000000000000E01C33
:10518000E01CF01E700E38071803080184000000B0
:10519000000000000000000000000000000000000F
:1051A00000000000000000000000000000000000FF
:1051B00000000000000000000000000000000000EF
:1051C0000000000020102010201020102010FE7F72
:1051D000FE7F1008100810081008100810081008AA
:1051E000FE7FFE7F08040804080408040804000089
:1051F00000000000000000000000000000000000AF
:1052000000010001C0076019103118311839183930
:1052100038017001E001C0038007000F001D003954
:1052200000311C311C310C310C11180DE00700014C
:10523000000100010000000000000000000000006C
:10524000000000001C1036186308630C630463043C
:10525000630263026301361D9C37802280634063D2
:10526000406320632063306310221836081C00005E
:10527000000000000000000000000000000000002E
:1052800000000000F00098018C018C018C018C0161
:105290008C00CC007800183E1C08360832086304E5
:1052A0006304C304C303834306438E26781C0000B3
:1052B00000000000000000000000000000001C00D2
:1052C0003C003C003000300010000C0006000000E4
:1052D00000000000000000000000000000000000CE
:1052E00000000000000000000000000000000000BE
:1052F000000000000000000000000000000000406E
:10530000002000100008000C000400060003000349
:105310000003800180018001800180018001800103
:10532000800100030003000300060006000C0008D3
:1053300000100020004000000000000000000200FB
:10534000040008001000300020006000C000C00011
:10535000C000800180018001800180018001800106
:105360008001C000C000C00060006000300010007C
:10537000080004000200000000000000000000001F
:105380000000000000000000000180038003000115
:105390001C713C79783DC0070001C007783D3C791D
:1053A0001C710001800380038001000000000000E8
:1053B00000000000000000000000000000000000ED
:1053C00000000000000000000000000100010001DA
:1053D0000001000100010001FC7F0001000100014B
:1053E00000010001000100010000000000000000B9
:1053F00000000000000000000000000000000000AD
:10540000000000000000000000000000000000009C
:10541000000000000000000000000000000000008C
:1054200000000000000000001C003C003C003000B8
:10543000300010000C00060000000000000000001A
:10544000000000000000000000000000000000005C
:105450000000000000000000FE7F000000000000CF
:10546000000000000000000000000000000000003C
:10547000000000000000000000000000000000002C
:10548000000000000000000000000000000000001C
:10549000000000000000000000000000000000000C
:1054A00000000000000018003C003C001800000054
:1054B00000000000000000000000000000000040AC
:1054C000006000200030001000180008000C0004EC
:1054D000000600020003000180018000C0004000BF
:1054E0006000200030001000180008000C000400CC
:1054F00006000200000000000000000000000000A4
:1055000000000000C007600C301818301830182058
:105510000C600C600C600C600C600C600C600C602B
:105520000C601820183018303018600CC0070000CC
:10553000000000000000000000000000000000006B
:105540000000000000018001F8018001800180015D
:105550008001800180018001800180018001800143
:1055600080018001800180018001C003F81F0000DC
:10557000000000000000000000000000000000002B
:1055800000000000E007101C0818043004300C3044
:105590000C300030001800080004000200018000F8
:1055A00040002020102008200430FC1FFC1F0000B9
:1055B00000000000000000000000000000000000EB
:1055C00000000000E003180E0C0C0C180C180C184E
:1055D0000018000C0006C003000E00180010003078
:1055E00000300C300C300C100C18180CE0030000CC
:1055F00000000000000000000000000000000000AB
:1056000000000000000C000E000E000F800E800E47
:10561000400E600E200E100E100E080E040E040E2A
:10562000FE7F000E000E000E000E000E000EC07F6A
:10563000000000000000000000000000000000006A
:1056400000000000F03FF03F1000100010000800C4
:105650000800C807280C1818081000300030003067
:1056600000300C300C3004180418080CF003000053
:10567000000000000000000000000000000000002A
:1056800000000000800FC0102030103018001800FB
:1056900008000C008C0F6C183C301C600C600C6017
:1056A0000C600C601860182030306018C0070000D3
:1056B00000000000000000000000000000000000EA
:1056C00000000000F83FF83F1C100C080408040418
:1056D00000040002000200010001000180008000BF
:1056E0008000C000C000C000C000C000C0000000BA
:1056F00000000000000000000000000000000000AA
:1057000000000000E007300C18180C300C300C3092
:105710001C3038187008E007B007180E0C1C06384B
:1057200006300630063006300C18180CE003000076
:105730000000000000000000000000000000000069
:1057400000000000E00318040C080C1806100630D6
:1057500006300630063006380C3C1836F031003082
:105760000018001800180C0C0C060C03F0010000C7
:105770000000000000000000000000000000000029
:105780000000000000000000000000000000000019
:1057900000008001C003C003800100000000000081
:1057A0000000000000008001C003C0038001000071
:1057B00000000000000000000000000000000000E9
:1057C00000000000000000000000000000000000D9
:1057D0000000C000C0000000000000000000000049
:1057E00000000000000000000000C000C0008000B9
:1057F00080004000400000000000000000000000A9
:1058000000000020001000080004000600038001D2
:10581000C0006000300018000C001800300060006C
:10582000C0008001000300060004000800100020F2
:105830000000000000000000000000000000000068
:105840000000000000000000000000000000000058
:105850000000FE7F00000000000000000000FE7F4E
:105860000000000000000000000000000000000038
:105870000000000000000000000000000000000028
:10588000000004000800100020006000C00080013B
:1058900000030006000C001800300018000C000681
:1058A00000038001C0006000200010000800040018
:1058B00000000000000000000000000000000000E8
:1058C0000000C0073018083008600C601C601C60C5
:1058D0001C600030001C0006000180008000800079
:1058E0008000000000008001C003C00380010000B0
:1058F00000000000000000000000000000000000A8
:1059000000000000C0076018103018200C2F8C4DCC
:10591000864CC64CC64C664C664466446626662673
:105920006615CC1C0C40082018303018C007000049
:105930000000000000000000000000000000000067
:1059400000000001C001C001C0014001600320034C
:10595000200320033006100610061006F80F080C6E
:10596000080C080C0C0C0418041806181F7C000006
:105970000000000000000000000000000000000027
:1059800000000000FE07181C1838183018301830B6
:1059900018301818180CF807181818301820186044
:1059A000186018601860186018301818FE0F000092
:1059B00000000000000000000000000000000000E7
:1059C00000000000C0276038103018200C400C4048
:1059D0000400060006000600060006000600060099
:1059E00006000C400C400C2018303018C007000096
:1059F00000000000000000000000000000000000A7
:105A000000000000FE03180E181818301830183067
:105A100018601860186018601860186018601860C6
:105A200018601830183018101818180EFE030000EF
:105A30000000000000000000000000000000000066
:105A400000000000FE3F18301820186018401800B1
:105A500018081808180CF80F180C1808180818005F
:105A6000180018001840184018201830FE3F000099
:105A70000000000000000000000000000000000026
:105A800000000000FE7F1870184018C01880180031
:105A9000181018101818F81F1818181018101800D7
:105AA0001800180018001800180018007E000000E8
:105AB00000000000000000000000000000000000E6
:105AC00000000000C013701C101018100C200C20D7
:105AD00004000600060006000600060006FC06306C
